:100000000C9462000C948A000C948A000C948A0070
:100010000C948A000C948A000C948A000C948A0038
:100020000C948A000C948A000C948A000C94750A33
:100030000C948A000C948A000C948A000C948A0018
:100040000C94B4080C948A000C9424090C94FE08B7
:100050000C948A000C948A000C948A000C948A00F8
:100060000C9456090C948A0000000000240027001C
:100070002A0000000000250028002B0000000000DE
:1000800023002600290004040404040404040202DA
:100090000202020203030303030301020408102007
:1000A0004080010204081020010204081020000012
:1000B0000008000201000003040700000000000027
:1000C0000000310B11241FBECFEFD8E0DEBFCDBF43
:1000D00012E0A0E0B1E0E6EBFCE202C005900D9278
:1000E000A034B107D9F724E0A0E4B2E001C01D922A
:1000F000A133B207E1F710E0C2E6D0E004C02197D7
:10010000FE010E949512C136D107C9F70E949D0CCD
:100110000C9459160C9400003F924F925F926F928C
:100120007F928F929F92AF92BF92CF92DF92EF9287
:10013000FF920F931F93CF93DF937C01062F6C01E7
:1001400084E0C80ED11C11E01017A0F5F6018190D3
:100150009190A190B1906F01312EC32DD0E0C1508C
:10016000D04CCC0FDD1FCC0FDD1FF701EC0FFD1FB6
:1001700040805180628073802496CE0DDF1DA301E4
:100180009201C501B4010E94081387FF07C048828D
:1001900059826A827B823A943110DFCF84E0389EA4
:1001A000F0011124EE0DFF1D80829182A282B382A4
:1001B0001F5FCACFDF91CF911F910F91FF90EF90FA
:1001C000DF90CF90BF90AF909F908F907F906F9077
:1001D0005F904F903F900895833081F028F48130F4
:1001E00099F08230A9F008958730A9F08830C9F0DD
:1001F0008430B1F4809180008F7D03C080918000B5
:100200008F7780938000089584B58F7784BD08959B
:1002100084B58F7DFBCF8091B0008F778093B00045
:1002200008958091B0008F7DF9CFCF93DF93282F71
:1002300030E0F901E255FF4F8491F901E656FF4F96
:10024000D491F901EA57FF4FC491CC23A1F0811159
:100250000E94EC00EC2FF0E0EE0FFF1FE458FF4F80
:10026000A591B491EC91ED2381E090E009F480E058
:10027000DF91CF91089580E090E0FACF1F93CF9364
:10028000DF93282F30E0F901E255FF4F8491F90107
:10029000E656FF4FD491F901EA57FF4FC491CC23A2
:1002A000A9F0162F81110E94EC00EC2FF0E0EE0F68
:1002B000FF1FEE58FF4FA591B4918FB7F894EC91C2
:1002C000111108C0D095DE23DC938FBFDF91CF9151
:1002D0001F910895DE2BF8CFCF93DF93C4EDD3E0C9
:1002E00061E089810E943E018BEF90E00197F1F778
:1002F00060E089810E943E011B821C821D821E8259
:1003000080E090E0A0E8BFE38F839887A987BA8751
:1003100080E88A831B861C861D861E861B8ADF91C9
:10032000CF910895CF93DF9390E0FC01E656FF4F05
:1003300024918A579F4FFC0184918823D1F090E04B
:10034000880F991FFC01E859FF4FA591B491FC015A
:10035000EE58FF4FC591D49161110EC09FB7F8942C
:100360008C91E22FE0958E238C932881E223E88301
:100370009FBFDF91CF9108958FB7F894EC91E22B56
:10038000EC938FBFF6CF0895CF93DF93AC01E0914C
:10039000D902F091DA023097F1F09091D802809171
:1003A000D7029817C0F090E0292F30E026173707C2
:1003B00054F4D901AF5BBD4F240F351FE9012881EB
:1003C0002C939F5FF1CF1092D8026093D702CB019C
:1003D000DF91CF910994DF91CF910895AF92BF92B1
:1003E000CF92DF92EF92FF920F931F93CF93DF9301
:1003F0006C017B018B01040F151FEB015E01AE1830
:10040000BF08C017D10759F06991D601ED91FC9151
:100410000190F081E02DC6010995892B79F7C5017E
:10042000DF91CF911F910F91FF90EF90DF90CF90D0
:10043000BF90AF900895FC01538D448D252F30E07F
:10044000842F90E0821B930B541710F0CF960895E1
:1004500001970895FC01918D828D981761F0A28D0E
:10046000AE0FBF2FB11D5D968C91928D9F5F9F73D4
:10047000928F90E008958FEF9FEF0895FC01918D8A
:10048000828D981731F0828DE80FF11D858D90E0F7
:1004900008958FEF9FEF0895FC01918D228D892F94
:1004A00090E0805C9F4F821B91098F73992708957C
:1004B00083E093E00E944C0221E0892B09F420E0C4
:1004C000822F089580E090E0892B29F00E94580245
:1004D00081110C9400000895FC01A48DA80FB92F80
:1004E000B11DA35ABF4F2C91848D90E001968F735C
:1004F0009927848FA689B7892C93A089B1898C917B
:10050000837080648C93938D848D981306C00288C9
:10051000F389E02D80818F7D80830895EF92FF9293
:100520000F931F93CF93DF93EC0181E0888F9B8D16
:100530008C8D98131AC0E889F989808185FF15C0D0
:100540009FB7F894EE89FF896083E889F9898081F3
:100550008370806480839FBF81E090E0DF91CF91C2
:100560001F910F91FF90EF900895F62E0B8D10E0E4
:100570000F5F1F4F0F731127E02E8C8D8E110CC053
:100580000FB607FCFACFE889F989808185FFF5CF9E
:10059000CE010E946C02F1CFEB8DEC0FFD2FF11D0F
:1005A000E35AFF4FF0829FB7F8940B8FEA89FB89DB
:1005B00080818062CFCFCF93DF93EC01888D882339
:1005C000B9F0AA89BB89E889F9898C9185FD03C0B6
:1005D000808186FD0DC00FB607FCF7CF8C9185FF9B
:1005E000F2CF808185FFEDCFCE010E946C02E9CF72
:1005F000DF91CF91089520918702260F3327331F73
:1006000021323105ECF42091AB02FC0190E080E056
:10061000243069F082E00895A09187022191AC0115
:1006200049595D4FA40FB52FB11D2C930196861724
:1006300098F380918702680F6093870280E00895A5
:1006400081E008951092AB0281E08093AD02109298
:10065000AC0261E082E10E943E0161E083E10E9420
:100660003E01E9EBF0E080818E7F808380818D7F89
:10067000808388E48093B80085E48093BC0008956B
:100680000895E091D8028091D702E81730F4F0E0A5
:10069000EF5BFD4F808190E008958FEF9FEF08950D
:1006A0009091D8028091D7022FEF3FEF981748F42E
:1006B000E92FF0E0EF5BFD4F208130E09F5F9093EA
:1006C000D802C901089580EA93E00E945003809304
:1006D000F10208958091D7029091D802891B990B5D
:1006E0000895CF93DF93CB01EA01642F0E94FB02B0
:1006F000CE01DF91CF910895CF93DF931F92CDB7B5
:10070000DEB7698361E0CE0101960E94FB0281E0C1
:1007100090E00F90DF91CF91089590E080E00895F0
:10072000CF93DF93FC012781222359F1EC0161E093
:1007300080850E94920161E089850E9492018F81EB
:10074000843011F08830B1F461E08A850E94920112
:1007500061E08B850E9492018FA58F3F91F061E04F
:100760000E9492016EA581E068278FA5DF91CF914D
:100770000C943E01833011F0863071F761E08A8578
:10078000E9CFDF91CF910895CF93DF93FC012781CB
:100790002223A9F0EC010190F081E02D0284F38581
:1007A000E02D60E009958FA58F3F49F061E00E9440
:1007B00092016EA58FA5DF91CF910C943E01DF9140
:1007C000CF910895DC01ED91FC912285338547702E
:1007D000552766277727415051096109710947302C
:1007E00051056105710560F4FA01E750FC4F0C9466
:1007F000951203040504070409040B040D040F04F7
:1008000061E0F901099465E0FCCF64E0FACF66E0AD
:10081000F8CF62E0F6CF6AE0F4CF68E0F2CF69E0AB
:10082000F0CFCF93DF93EC01CB01BA0126E030E0AB
:1008300040E050E00E94261262307105810591056A
:1008400089F16CF46115710581059105D1F0613074
:10085000710581059105F9F0DF91CF91089564301C
:1008600071058105910561F124F1653071058105FE
:10087000910591F7E881F9810284F385E02D66E026
:1008800006C0E881F9810284F385E02D64E0CE01A1
:10089000DF91CF910994E881F9810284F385E02DFD
:1008A00065E0F5CFE881F9810284F385E02D61E010
:1008B000EECFE881F9810284F385E02D63E0E7CF94
:1008C000E881F9810284F385E02D62E0E0CFDC016C
:1008D000ED91FC910284F385E02D43705527662746
:1008E0007727423051056105710571F0433051059C
:1008F0006105710559F0413051056105710511F02F
:1009000065E0099466E0FDCF6AE0FBCF69E0F9CFCE
:10091000CF93DF93EC01CB01BA0123E030E040E05C
:1009200050E00E942612613071058105910599F011
:100930006230710581059105A9F0672B682B692B41
:10094000C1F4E881F9810284F385E02D64E0CE01F1
:10095000DF91CF910994E881F9810284F385E02D3C
:1009600061E0F5CFE881F9810284F385E02D62E052
:10097000EECFDF91CF910895DC01ED91FC910284DF
:10098000F385E02D437055276627772742305105C0
:100990006105710571F0433051056105710559F02C
:1009A000413051056105710511F062E0099463E081
:1009B000FDCF61E0FBCF60E0F9CFCF93DF93EC0197
:1009C000E881F9810284F385E02D8A8160E081115C
:1009D00062E0CE010995E881F9810284F385E02D7A
:1009E0008A8161E0811163E0CE0109958CA59DA506
:1009F0008230910538F0880F991F880F991F05974D
:100A00000197F1F7E881F9810284F385E02D8A816D
:100A100060E0811162E0CE01DF91CF910994CF9324
:100A2000DF93EC0120E030E0A901688D798D8A8D9B
:100A30009B8D0E94671418162CF4E8A9F9A9DF9180
:100A4000CF910994EAA9FBA9FACFCF92DF92EF9256
:100A5000FF920F931F93CF93DF93DC011796CC91F6
:100A6000C43039F0C83059F1C33019F0C63049F1FB
:100A7000C2E08C01085F1F4FF12CE12CC62ED12C57
:100A8000D1E0F8016481C6010E2C02C095958795CE
:100A90000A94E2F780FD6D270F5F1F4F80810E944F
:100AA0003E01BFEFEB1AFB0AEC1658F3DF91CF9132
:100AB0001F910F91FF90EF90DF90CF900895C4E0C9
:100AC000D8CFC3E0D6CFDC011796EC911797E93069
:100AD00008F038C0F0E0E159FA4F0C94951278050F
:100AE0007E0584058A059005A2059605A2059C054C
:100AF000ED91FC910684F785E02D0994ED91FC9130
:100B00000088F189E02DF9CFED91FC910288F389FD
:100B1000E02DF3CFED91FC910488F589E02DEDCF28
:100B2000ED91FC910688F789E02DE7CFED91FC91DE
:100B3000008CF18DE02DE1CFED91FC91028CF38DD5
:100B4000E02DDBCF08954F925F926F927F928F924C
:100B50009F92AF92BF92CF92DF92EF92FF920F934C
:100B60001F93CF93DF93EC01CC88DD88EE88FF885C
:100B700088899989AA89BB89C81AD90AEA0AFB0A0D
:100B8000688D798D8A8D9B8D9B01AC010E946C14C0
:100B90004B015C0168A179A18AA19BA19B01AC01D9
:100BA0000E949C129B01AC01C501B4010E940D136F
:100BB0000E947F13C114D104E104F10409F0B6C00E
:100BC00062307105810591050CF0D0C01B821C823A
:100BD0001D821E82188E198E1A8E1B8E1CAA1DAAAB
:100BE0001EAA1FAAC12CD12C7601C701B601DF9124
:100BF000CF911F910F91FF90EF90DF90CF90BF901A
:100C0000AF909F908F907F906F905F904F900895DE
:100C10001016110612061306B4F46C157D058E0528
:100C20009F051CF42A812111A1C09B01AC018827DA
:100C30009927DC01821B930BA40BB50B8CAB9DABEE
:100C4000AEABBFAB93C0011511052105310509F409
:100C50008DC06C157D058E059F050CF087C08A81BF
:100C6000882309F483C030952095109501951F4F76
:100C70002F4F3F4F0CAB1DAB2EAB3FAB77C00115D9
:100C800011052105310509F471C088249924540106
:100C90008C189D08AE08BF08681579058A059B0564
:100CA0000CF064C08A81811161C0DDCFCCACDDACB9
:100CB000EEACFFACA7019601C701B6010E949C12E1
:100CC0002B013C01C501B4010E94B71320E030E0C4
:100CD00040E850E40E946C1420E030E040E85FE31C
:100CE0000E949C129B01AC01C301B2010E940D1332
:100CF0009B01AC01C701B6010E949B123B016C0134
:100D0000FE01E05CFF4FE080F180028113819701DA
:100D1000A8010E946714181614F473018601C70114
:100D2000D8018CAF9DAFAEAFBFAF3AC00CA91DA923
:100D30002EA93FA91C141D041E041F040CF468CF27
:100D400010161106120613060CF099CF0027112772
:100D500098010C191D092E093F09601771078207B8
:100D600093070CF062CF2A8121115FCF8CA89DA838
:100D7000AEA8BFA881149104A104B10409F096CFD4
:100D800088AD99ADAAADBBAD8CAF9DAFAEAFBFAFD7
:100D900081E01C141D041E041F040CF080E08A83F3
:100DA0003FEF831A930AA30AB30A8CAA9DAAAEAA9C
:100DB000BFAA8CAC9DACAEACBFACC501B4010E9467
:100DC00086136B017C01CB82DC82ED82FE82A50161
:100DD000940160E074E284E799E40E940D13688F47
:100DE000798F8A8F9B8F2A812111FFCE9058688F2F
:100DF000798F8A8F9B8FF9CECF92DF92EF92FF92FD
:100E0000CF93DF93C9EED3E0688D798D8A8D9B8D6A
:100E10009B01AC010E946C146B017C0168A179A15B
:100E20008AA19BA19B01AC010E949C129B01AC0179
:100E3000C701B6010E940D130E947F136CAB7DABFE
:100E40008EAB9FABCE01DF91CF91FF90EF90DF9003
:100E5000CF900C94A3050895EF92FF920F931F93E8
:100E6000CF93DF93F090D503E090D40308E010E037
:100E7000C0E0D0E861E08F2D0E943E018E2D0E94DF
:100E80001501019709F4CD2B60E08F2D0E943E01E2
:100E9000D6950150110971F78C2FDF91CF911F91D9
:100EA0000F91FF90EF900895FF920F931F93CF93B0
:100EB000DF938091D4030E9415010197D1F310E0D4
:100EC000F8940E942C07D82F0E942C07F82E0E941D
:100ED0002C07082F8091D603803829F0803471F0D8
:100EE000C2E0803261F061E08091D5030E943E0152
:100EF00060E08091D5030E943E010DC0C3E061E037
:100F00008091D5030E943E0160E08091D5030E944C
:100F10003E01C150A1F77894D7FD1FEF2FB7F89489
:100F20008091FF0290910003A0910103B091020310
:100F30002FBF8093DF039093E003A093E103B0936E
:100F4000E203602F7F2D8D2F912F0E94B713DF9129
:100F5000CF911F910F91FF9008954F925F926F92E2
:100F60007F928F929F92AF92BF92CF92DF92EF9239
:100F7000FF926B017C0120E030E0A9010E94081380
:100F800087FF04C0F7FAF094F7F8F0948090090412
:100F900090900A04A0900B04B0900C04A701960155
:100FA000C501B4010E940813882309F458C0609158
:100FB0001D0470911E0480911F04909120040E94D2
:100FC000B7132B013C01A7019601C501B4010E9492
:100FD0000D139B01AC01C301B2010E946C140E946D
:100FE0007F1360931D0470931E0480931F049093DD
:100FF0002004A701960160E070E080E090E40E9488
:101000000D130E94DF1426E53EE04DE25FE30E94EF
:101010006C1420E034E244E759E40E946C146093BD
:101020002104709322048093230490932404C0929B
:101030000904D0920A04E0920B04F0920C0489EEA9
:1010400093E0FF90EF90DF90CF90BF90AF909F9094
:101050008F907F906F905F904F900C94A305FF90BE
:10106000EF90DF90CF90BF90AF909F908F907F9048
:101070006F905F904F90089542E050E062E571E01C
:1010800083E093E00C94EE01CF93DF93FC01019099
:101090000020E9F73197AF01481B590BBC0183E0F1
:1010A00093E00E94EE01EC010E943C088C0F9D1F12
:1010B000DF91CF910895CF93DF9385ED8093BC00AE
:1010C0008091630290916402A0916502B0916602E2
:1010D0000796A11DB11D23E0B695A7959795879515
:1010E0002A95D1F72091BC0024FD03C01092AB02D9
:1010F00036C0409163025091640260916502709124
:101100006602452B462B472B69F30097A105B105D5
:1011100041F02AE22A95F1F700C00197A109B1092F
:10112000E1CF8091620291E0909361028823B9F04F
:10113000C091B800D091BA008091BC008A7B8093A6
:10114000BC0060E082E10E943E0160E083E10E9419
:101150003E010E942203D093BA00C093B800DF91F1
:10116000CF9108950C94D0151F920F920FB60F9245
:1011700011242F933F938F939F93AF93BF938091AD
:10118000FF0290910003A0910103B09102033091FE
:10119000FE0223E0230F2D3758F50196A11DB11D46
:1011A0002093FE028093FF0290930003A09301031B
:1011B000B09302038091FA029091FB02A091FC028D
:1011C000B091FD020196A11DB11D8093FA0290938A
:1011D000FB02A093FC02B093FD02BF91AF919F91DF
:1011E0008F913F912F910F900FBE0F901F901895E8
:1011F00026E8230F0296A11DB11DD2CF1F920F9298
:101200000FB60F9211242F933F934F935F936F93D9
:101210007F938F939F93AF93BF93EF93FF9383E05D
:1012200093E00E946C02FF91EF91BF91AF919F916B
:101230008F917F916F915F914F913F912F910F907F
:101240000FBE0F901F9018951F920F920FB60F921E
:1012500011242F938F939F93EF93FF93E0911303A8
:10126000F09114038081E0911903F0911A0382FD3B
:101270001BC0908180911C038F5F8F7320911D0391
:10128000821741F0E0911C03F0E0ED5FFC4F958F79
:1012900080931C03FF91EF919F918F912F910F905D
:1012A0000FBE0F901F9018958081F4CF1F920F9260
:1012B0000FB60F9211242F933F934F935F936F9329
:1012C0007F938F939F93AF93BF93EF93FF938091FF
:1012D000B900887F803609F44AC0F0F5883209F4F5
:1012E000A7C018F5803109F49BC0B8F4882309F42D
:1012F000F9C0883009F494C0FF91EF91BF91AF918C
:101300009F918F917F916F915F914F913F912F911D
:101310000F900FBE0F901F901895883109F488C068
:10132000803251F78093AA0214C0803409F49DC022
:1013300040F48033B9F38833F9F68093AA0285EC40
:10134000B0C0803509F485C0883509F496C088346A
:1013500099F60E945B08D0CF883909F48CC038F523
:10136000883729F050F4883611F0803729F683E069
:101370008093AB021092A90257C0883809F47BC051
:10138000803919F0803809F0B7CF8091A9028032F6
:1013900008F071C0E091A90281E08E0F8093A9024C
:1013A0008091BB00F0E0E757FD4F80833DC0803B5C
:1013B00039F0E0F4803A09F479C0883A09F09CCF1A
:1013C00084E08093AB021092880210928702E09131
:1013D000D302F091D40209958091870281110FC048
:1013E00081E0809387021092670209C0803C09F473
:1013F000A6CF883C09F4A3CF883B09F07DCFE091CC
:10140000880281E08E0F80938802F0E0E959FD4F59
:1014100080818093BB00909188028091870229C0CF
:101420008091D0028093BB0085EC8093BC0064CF98
:101430009091CF028091CE02981758F5E091CF029B
:1014400081E08E0F8093CF02F0E0E255FD4F808166
:10145000E9CFE091CF0281E08E0F8093CF0280919F
:10146000BB00F0E0E255FD4F80839091CF02809168
:10147000CE029817C8F285E8D8CFE091CF0281E07C
:101480008E0F8093CF028091BB00F0E0E255FD4FBC
:1014900080838091AD0281115CCF81E08093AC02AA
:1014A00084EA8093BC001092AB0226CF85EC809337
:1014B000BC001092AB028091A902803230F4E0911E
:1014C000A902F0E0E757FD4F10826091A90270E099
:1014D000E091D102F091D20289E892E00995109250
:1014E000A9020ACF1092AA0234CF1F920F920FB610
:1014F0000F9211242F933F934F935F936F937F939A
:101500008F939F93AF93BF93CF93DF93EF93FF930B
:1015100080914002C091D003D0E087FF24C0109298
:10152000850010928400809140028F5F809340027A
:1015300080914002082E000C990B8C179D0724F413
:10154000809140028C30C4F180918400909185009C
:10155000049680349C4908F47AC08091840090916C
:101560008500049676C080914002082E000C990BED
:101570008C179D07C4F6E09140028E2FEE0F990B59
:10158000FC01EE0FFF1FE80FF91FE455FC4F8081AF
:1015900086FFC9CFE09140028E2FEE0F990BFC0120
:1015A000EE0FFF1FE80FF91FE455FC4F808160E04C
:1015B0008F730E943E01B7CF209184003091850047
:1015C000E09140028E2FEE0F990BFC01EE0FFF1FF2
:1015D000E80FF91FE455FC4F81819281820F931F20
:1015E0009093890080938800E09140028E2FEE0F47
:1015F000990BFC01EE0FFF1FE80FF91FE455FC4F9C
:10160000808186FF11C0E09140028E2FEE0F990B72
:10161000FC01EE0FFF1FE80FF91FE455FC4F80811E
:1016200061E08F730E943E01FF91EF91DF91CF91B6
:10163000BF91AF919F918F917F916F915F914F91EA
:101640003F912F910F900FBE0F901F90189580E43F
:101650009CE990938900809388008FEF80934002EB
:10166000E3CFCF92DF92EF92FF9210920603109297
:10167000050388EE93E0A0E0B0E080930703909329
:101680000803A0930903B0930A0322E131E03093E9
:1016900004032093030325EC30E0309310032093E0
:1016A0000F0324EC30E0309312032093110320EC5D
:1016B00030E0309314032093130321EC30E0309397
:1016C00016032093150322EC30E030931803209387
:1016D000170326EC30E030931A032093190310927D
:1016E0001C0310921D0310921E0310921F031092F0
:1016F000A3031092A2038093A4039093A503A09345
:10170000A603B093A70384E291E09093A103809392
:10171000A00386E391E09093EA038093E90381E0DC
:101720008093F0031092F9031092FA031092FB03D6
:101730001092FC031092FD031092FE031092FF031F
:1017400010920004109201041092020410920304FB
:1017500010920404109205041092060410920704DB
:10176000109208041092090410920A0410920B04BB
:1017700010920C04C12CD12C30E8E32E3FE3F32E61
:10178000C0920D04D0920E04E0920F04F092100467
:101790001092EC031092ED031092EE031092EF03FF
:1017A00081E090E090931604809315048FEF80936E
:1017B0001804109211041092120410921304109243
:1017C000140483E08093F10384E08093F203809318
:1017D000F30385E08093F4031092170410921D0424
:1017E00010921E0410921F041092200410922104E3
:1017F00010922204109223041092240410922504C3
:10180000109226041092270410922804C0922904F2
:10181000D0922A04E0922B04F0922C041092EB0355
:101820001092F5031092F6031092F7031092F8034A
:1018300089EE93E00E949003C701B6010E94AD07B4
:10184000A701960160910504709106048091070438
:10185000909108040E940813882319F1C09205048E
:10186000D0920604E0920704F092080480E094E22B
:10187000A4E7B9E48093290490932A04A0932B044D
:10188000B0932C0480911D0490911E04A0911F041C
:10189000B0912004181619061A061B0614F40E94AB
:1018A000FC0680E88093D6031092D7031092D803E9
:1018B0001092D9031092DA0380E090E0A0E8BFE331
:1018C0008093DB039093DC03A093DD03B093DE03EE
:1018D0001092DF031092E0031092E1031092E203F2
:1018E0001092E3031092E4031092E5031092E603D2
:1018F0001092E7031092E8030E946C018091D003DC
:101900008C30B8F491E0980F9093D0038093D1037A
:1019100090E0FC01EE0FFF1FE80FF91FE455FC4FAC
:1019200088EB9BE092838183FF90EF90DF90CF90D4
:1019300008958FEF8093D103F7CFCF93DF93CDB787
:10194000DEB7EC970FB6F894DEBF0FBECDBF78942C
:1019500084B5826084BD84B5816084BD85B58260B4
:1019600085BD85B5816085BD80916E008160809365
:101970006E001092810080918100826080938100CE
:1019800080918100816080938100809180008160DE
:10199000809380008091B10084608093B100809139
:1019A000B00081608093B00080917A008460809361
:1019B0007A0080917A00826080937A0080917A0028
:1019C000816080937A0080917A00806880937A00A9
:1019D0001092C10020E030E04AE754E46091050431
:1019E0007091060480910704909108040E940813E6
:1019F000882319F180E090E0AAE7B4E4809305041D
:101A000090930604A0930704B093080480932904DC
:101A100090932A04A0932B04B0932C0480911D046E
:101A200090911E04A0911F04B0912004181619066D
:101A30001A061B0614F40E94FC0660E070E088E4BD
:101A400092E40E94AD0720E030E048E453E4609166
:101A500001047091020480910304909104040E9497
:101A600008138823E9F18090050490900604A09063
:101A70000704B090080475016401F7FAF094F7F8D0
:101A8000F09420E030E048E453ECC501B4010E943A
:101A9000081387FD0CC020E030E048E453E4C501A2
:101AA000B4010E94081387FF24C37501640120E07C
:101AB00030E0A901C701B6010E94081381111FC3BC
:101AC0001092EC031092ED031092EE031092EF03CC
:101AD000C0920104D0920204E0920304F092040444
:101AE0008091FD039091FE03A091FF03B09100044B
:101AF00084369105A105B10581F084E690E0A0E06F
:101B0000B0E08093FD039093FE03A093FF03B09396
:101B1000000489EE93E00E94A3058091D1038C30EC
:101B200008F051C061E08BE00E9492018091D103E6
:101B3000282F30E0F901EE0FFF1FE20FF31FE455ED
:101B4000FC4F9081907C9B6090831092D203109206
:101B5000D3032CE0622F0E948912829FB0011124CE
:101B600030E020E0AB01420F531FFA01EE0FFF1FE0
:101B7000E40FF51FE455FC4F908196FD16C02F5FD2
:101B80003F4F2C30310571F781110FC0109280004A
:101B900082E0809381001092850010928400B19AB7
:101BA00080916F00826080936F00E091D1038E2F4F
:101BB00090E0FC01EE0FFF1FE80FF91FE455FC4F0A
:101BC00080818064808360E087E00E94920160E011
:101BD00088E00E94920160E089E00E94920161E049
:101BE00085E00E94920161E086E00E94920161E03E
:101BF0008FE00E94920182E18093D40383E180937D
:101C0000D5031092E80360E082E10E94920161E056
:101C10008091D5030E94920160E08091D5030E94DB
:101C20003E010E946C0188E690E0ACE1BBE380934A
:101C3000DB039093DC03A093DD03B093DE0314E198
:101C4000C12CD12C76010E9454079B01AC01C70125
:101C5000B6010E949C126B017C011150A1F720E09B
:101C600030E040EA51E40E940D130E947F1360931C
:101C7000D7037093D8038093D9039093DA038091AC
:101C8000E703813009F474C2823009F459C20E941A
:101C900054071092D8021092D7021092D6021092D6
:101CA000D5020E94220383EC91E09093D4028093AA
:101CB000D30284EC91E09093D2028093D10282E12E
:101CC0008093BA0083E693E09093DA028093D9027E
:101CD000E0911303F091140382E08083E0910F03FD
:101CE000F09110031082E0911103F09112038FEC38
:101CF000808310921B03E0911703F091180386E094
:101D00008083E0911503F0911603808180618083C8
:101D1000E0911503F0911603808188608083E09143
:101D20001503F0911603808180688083E09115038C
:101D3000F091160380818F7D808385E591E00E947C
:101D4000440888E691E00E9444088DE791E00E94F3
:101D500044088FE891E00E9444080E943C0812E089
:101D6000E12EF12C01E010E084E6482E512C612C8C
:101D7000712CA8E82A2E312CB8E5CB2EB2E0DB2E50
:101D80002FB7F8948091FF0290910003A091010376
:101D9000B09102032FBF8093F6029093F702A093B5
:101DA000F802B093F9024091F2025091F30260916F
:101DB000F4027091F5024C015D01841A950AA60A9D
:101DC000B70AB501A4014A3051056105710508F44F
:101DD000E9C08093F2029093F302A093F402B093CF
:101DE000F5028091F102833731F41093F0020093F1
:101DF000EF021092F10283E093E00E942A028337FF
:101E0000910541F486EA91E00E9444081093F002A3
:101E10000093EF028091ED029091EE02892B41F444
:101E20001093F0020093EF021093EE020093ED0284
:101E30008091EF029091F002009709F0ADC180917E
:101E4000F6029091F702A091F802B091F902409148
:101E5000E9025091EA026091EB027091EC02841B5E
:101E6000950BA60BB70B853F9140A105B105A0F0DE
:101E70008AEB91E00E9444088091F6029091F7026B
:101E8000A091F802B091F9028093E9029093EA02DE
:101E9000A093EB02B093EC028091E3029091E402F4
:101EA0008130910509F052C28091F6029091F702BB
:101EB000A091F802B091F9024091DF025091E00246
:101EC0006091E1027091E202841B950BA60BB70BA7
:101ED0008D3D9540A105B10500F161E085E00E94CE
:101EE0003E0161E082E00E943E0186E192E00E94B4
:101EF00044088091F6029091F702A091F802B09107
:101F0000F9028093DB029093DC02A093DD02B09390
:101F1000DE02F092E402E092E3028091E702909107
:101F2000E8028130910509F04FC28091F60290914C
:101F3000F702A091F802B091F9024091DF025091AE
:101F4000E0026091E1027091E202841B950BA60B06
:101F5000B70B8D3D9540A105B10520F140E050E063
:101F600060EA71E440930401509305016093060117
:101F70007093070187E292E00E9444088091F60284
:101F80009091F702A091F802B091F9028093DF02DC
:101F90009093E002A093E102B093E202F092E80293
:101FA000E092E70220E030E040EA51E46091000175
:101FB0007091010180910201909103010E946C14C3
:101FC00020910401309105014091060150910701D3
:101FD0000E949C1220E030E048EA51E40E940D1378
:101FE00060930001709301018093020190930301BB
:101FF0000E947F139B016032A2E07A07D4F5209102
:10200000D203F101E21BF10927FDF3959F01220F95
:10201000331F220F331F4901330FAA08BB08209139
:10202000D303A601421B510927FD53959A01220FA4
:10203000331F220F331F032E000C440B550B28199E
:1020400039094A095B09DB01653B710514F0A4EB12
:10205000B0E0B7FF02C0B0E0A0E00E94501224EB55
:1020600030E040E050E00E942612280D391D4A1D44
:102070005B1D4091D1034C3078F58091D203B101C2
:10208000681B710987FD7395CB01880F991F880F15
:10209000991F2817390784F08091D303D601A81B14
:1020A000B10987FDB395CD01880F991F880F991F3E
:1020B000281739070CF4C9010297880F991F2FB709
:1020C000F89450E0FA01EE0FFF1FE40FF51FE455FE
:1020D000FC4F928381832FBFE0E0F0E0EF2B09F407
:1020E0004FCE0E945802882309F443CE0E9400007C
:1020F00040CEC12CD12C18E4E12E13E4F12EA7011F
:10210000960160E074E284E799E40E940D139F77E2
:102110000E9486136093EC037093ED038093EE03AB
:102120009093EF0311E020E030E0A901C701B60170
:102130000E94671418160CF010E01093EB03C8CC43
:102140008E010F5F1F4F6E012DE0C20ED11C780172
:102150000E945407D8016D937D938D939D938D01BB
:10216000CA16DB06A9F763E0C7010E948C0091CD77
:102170008E010F5F1F4F6E01BDE0CB0ED11C7801A9
:102180000E945407F80161937193819391938F0199
:10219000CE16DF06A9F7E7CF8130910539F580919A
:1021A000F6029091F702A091F802B091F9024091E5
:1021B000E9025091EA026091EB027091EC02841BFB
:1021C000950BA60BB70B893E9340A105B10508F40A
:1021D00063CE61E086E00E943E0188EC91E00E94BF
:1021E0004408F092F002E092EF0246CE8230910570
:1021F00049F58091F6029091F702A091F802B09112
:10220000F9024091E9025091EA026091EB0270916B
:10221000EC02841B950BA60BB70B833C9140A105E8
:10222000B10508F439CE60E086E00E943E0185EDFC
:1022300091E00E94440863E070E07093F0026093C4
:10224000EF021ACE8330910509F042C08091F60268
:102250009091F702A091F802B091F9024091E90241
:102260005091EA026091EB027091EC02841B950B95
:10227000A60BB70B81379741A105B10508F40CCE29
:102280008091FD039091FE03A091FF03B0910004A3
:1022900084369105A105B10561F04092FD0350928D
:1022A000FE036092FF037092000489EE93E00E94A7
:1022B000A3051093E8020093E70282EE91E00E94EA
:1022C000440884E090E09093F0028093EF02D4CD34
:1022D000049709F0E1CD8091F6029091F702A09168
:1022E000F802B091F9024091E9025091EA0260913E
:1022F000EB027091EC02841B950BA60BB70B0B97AE
:10230000A105B10508F4C8CD8091E5029091E602DF
:102310008530910554F401969093E6028093E5028E
:102320001093F0020093EF02B7CD1092E6021092E4
:10233000E5021092EE021092ED0288E092E00E9417
:1023400044081092F0021092EF02A6CD029709F015
:10235000E4CD8091F6029091F702A091F802B0913D
:10236000F9024091DB025091DC026091DD02709134
:10237000DE02841B950BA60BB70B85399141A10595
:10238000B10508F4CACD60E085E00E943E0160E03E
:1023900082E00E943E018EE192E00E94440880911A
:1023A000F6029091F702A091F802B091F9028093A1
:1023B000DB029093DC02A093DD02B093DE02109268
:1023C000E4021092E302A9CD029709F0EBCD8091CF
:1023D000F6029091F702A091F802B091F9024091B3
:1023E000DF025091E0026091E1027091E202841BF1
:1023F000950BA60BB70B8D3D9540A105B10508F4D3
:10240000D1CD60E070E084E393E4609304017093C5
:102410000501809306019093070183E392E00E94F7
:1024200044088091F6029091F702A091F802B091D1
:10243000F9028093DF029093E002A093E102B0934F
:10244000E2021092E8021092E702ACCD052E97FB53
:102450001EF400940E943D1257FD07D00E945812AE
:1024600007FC03D04EF40C943D12509540953095E6
:1024700021953F4F4F4F5F4F0895909580957095F0
:1024800061957F4F8F4F9F4F08950E947A12A59FAD
:10249000900DB49F900DA49F800D911D112408955F
:1024A000B7FF0C9445120E944512821B930B0895AE
:1024B000A1E21A2EAA1BBB1BFD010DC0AA1FBB1F48
:1024C000EE1FFF1FA217B307E407F50720F0A21BBA
:1024D000B30BE40BF50B661F771F881F991F1A9427
:1024E00069F760957095809590959B01AC01BD0151
:1024F000CF010895A29FB001B39FC001A39F700DAB
:10250000811D1124911DB29F700D811D1124911DFB
:102510000895991B79E004C0991F961708F0961B3F
:10252000881F7A95C9F780950895EE0FFF1F0590D3
:10253000F491E02D09945058BB27AA270E94B312AA
:102540000C942D140E941F1438F00E94261420F0C1
:1025500039F49F3F19F426F40C941C140EF4E09502
:10256000E7FB0C941614E92F0E943E1458F3BA1797
:10257000620773078407950720F079F4A6F50C9499
:1025800060140EF4E0950B2EBA2FA02D0B01B901AB
:1025900090010C01CA01A0011124FF27591B99F0D9
:1025A000593F50F4503E68F11A16F040A22F232FE5
:1025B000342F4427585FF3CF469537952795A79535
:1025C000F0405395C9F77EF41F16BA0B620B730BDC
:1025D000840BBAF09150A1F0FF0FBB1F661F771F4D
:1025E000881FC2F70EC0BA0F621F731F841F48F402
:1025F000879577956795B795F7959E3F08F0B0CF8B
:102600009395880F08F09927EE0F97958795089571
:102610000E94F21308F481E008950E9421130C94A3
:102620002D140E94261458F00E941F1440F029F423
:102630005F3F29F00C94161451110C9461140C9402
:102640001C140E943E1468F39923B1F3552391F3AF
:10265000951B550BBB27AA2762177307840738F011
:102660009F5F5F4F220F331F441FAA1FA9F335D06E
:102670000E2E3AF0E0E832D091505040E695001C22
:10268000CAF72BD0FE2F29D0660F771F881FBB1FDC
:10269000261737074807AB07B0E809F0BB0B802DBA
:1026A000BF01FF2793585F4F3AF09E3F510578F0E6
:1026B0000C9416140C9461145F3FE4F3983ED4F329
:1026C000869577956795B795F7959F5FC9F7880FBA
:1026D000911D9695879597F90895E1E0660F771F0C
:1026E000881FBB1F621773078407BA0720F0621B9D
:1026F000730B840BBA0BEE1F88F7E09508950E94C8
:1027000086136894B1110C94611408950E944614C4
:1027100088F09F5798F0B92F9927B751B0F0E1F0A2
:10272000660F771F881F991F1AF0BA95C9F714C052
:10273000B13091F00E946014B1E008950C946014DF
:10274000672F782F8827B85F39F0B93FCCF386958B
:1027500077956795B395D9F73EF4909580957095E8
:1027600061957F4F8F4F9F4F0895E89409C097FB65
:102770003EF490958095709561957F4F8F4F9F4F58
:102780009923A9F0F92F96E9BB279395F69587959C
:1027900077956795B795F111F8CFFAF4BB0F11F45F
:1027A00060FF1BC06F5F7F4F8F4F9F4F16C0882306
:1027B00011F096E911C0772321F09EE8872F762F3C
:1027C00005C0662371F096E8862F70E060E02AF07D
:1027D0009A95660F771F881FDAF7880F9695879569
:1027E00097F90895990F0008550FAA0BE0E8FEEF3E
:1027F00016161706E807F907C0F012161306E407C5
:10280000F50798F0621B730B840B950B39F40A26BD
:1028100061F0232B242B252B21F408950A2609F49B
:10282000A140A6958FEF811D811D089597F99F679F
:1028300080E870E060E008959FEF80EC0895002448
:102840000A941616170618060906089500240A9415
:1028500012161306140605060895092E0394000C9B
:1028600011F4882352F0BB0F40F4BF2B11F460FF2A
:1028700004C06F5F7F4F8F4F9F4F089557FD905853
:10288000440F551F59F05F3F71F04795880F97FB34
:10289000991F61F09F3F79F08795089512161306EE
:1028A0001406551FF2CF4695F1DF08C0161617061D
:1028B0001806991FF1CF8695710561050894089552
:1028C000E894BB2766277727CB0197F908950E94E4
:1028D000F21308F48FEF08950E947F140C942D14C6
:1028E0000E941F1438F00E94261420F0952311F046
:1028F0000C9416140C941C1411240C9461140E9452
:102900003E1470F3959FC1F3950F50E0551F629FE1
:10291000F001729FBB27F00DB11D639FAA27F00D38
:10292000B11DAA1F649F6627B00DA11D661F829F5F
:102930002227B00DA11D621F739FB00DA11D621F44
:10294000839FA00D611D221F749F3327A00D611D61
:10295000231F849F600D211D822F762F6A2F112443
:102960009F5750409AF0F1F088234AF0EE0FFF1F76
:10297000BB1F661F771F881F91505040A9F79E3FCD
:10298000510580F00C9416140C9461145F3FE4F32D
:10299000983ED4F3869577956795B795F795E79523
:1029A0009F5FC1F7FE2B880F911D9695879597F92C
:1029B000089519F416F40C941C140C941F150E941D
:1029C0004614B8F39923C9F3B6F39F57550B87FF05
:1029D0000E942D150024A0E640EA900180585695EB
:1029E000979528F4805C660F771F881F20F02617C4
:1029F0003707480730F4621B730B840B20293129F9
:102A00004A2BA69517940794202531254A2758F775
:102A1000660F771F881F20F026173707480730F406
:102A2000620B730B840B200D311D411DA09581F7A6
:102A3000B901842F9158880F9695879508959F3FE7
:102A400031F0915020F4879577956795B795880F69
:102A5000911D9695879597F9089591505040660F6E
:102A6000771F881FD2F708950F931F93CF93DF939B
:102A70008230910510F482E090E0E0912F04F09113
:102A8000300430E020E0B0E0A0E0309799F4211568
:102A9000310509F44AC0281B390B24303105D8F51B
:102AA0008A819B816115710589F1FB019383828382
:102AB000FE0111C0408151810281138148175907DD
:102AC000E0F04817590799F4109761F012960C93AB
:102AD000129713961C933296CF01DF91CF911F91DD
:102AE0000F91089500932F0410933004F4CF211513
:102AF000310551F04217530738F0A901DB019A0163
:102B0000BD01DF01F801C1CFEF01F9CF909330048F
:102B100080932F04CDCFFE01E20FF31F8193919399
:102B20002250310939832883D7CF20912D04309149
:102B30002E04232B41F420910A0130910B01309394
:102B40002E0420932D0420910801309109012115B4
:102B5000310541F42DB73EB740910C0150910D0164
:102B6000241B350BE0912D04F0912E04E217F3079E
:102B7000A0F42E1B3F0B2817390778F0AC014E5FED
:102B80005F4F2417350748F04E0F5F1F50932E04F8
:102B900040932D04819391939FCFF0E0E0E09CCF90
:102BA000CF93DF930097E9F0FC01329713821282F2
:102BB000A0912F04B0913004ED0130E020E0109797
:102BC000A1F420813181820F931F20912D04309137
:102BD0002E042817390709F061C0F0932E04E09302
:102BE0002D04DF91CF910895EA01CE17DF07E8F5B4
:102BF0004A815B819E0141155105B1F7E901FB83D3
:102C0000EA8349915991C40FD51FEC17FD0761F470
:102C1000808191810296840F951FE90199838883B1
:102C2000828193819B838A83F0E0E0E012968D910C
:102C30009C9113970097B9F52D913C911197CD0177
:102C40000296820F931F20912D0430912E04281795
:102C5000390739F6309751F51092300410922F044D
:102C6000B0932E04A0932D04BCCFD383C2834081A4
:102C70005181840F951FC817D90761F44E5F5F4FCC
:102C800088819981480F591F518340838A819B8194
:102C9000938382832115310509F0B0CFF09330047E
:102CA000E0932F049ECFFD01DC01C0CF138212827E
:062CB000D7CFF894FFCF1E
:102CB6000000A0410000A041000031048000000097
:102CC60000008E02EE011B02DB024C022A023E02CB
:102CD600000000007C0371038D0340036A03500368
:102CE600410300000000C40390032B07B208A305AC
:102CF600250563050F05DD04BC048804670411047B
:102D0600E2030D0A004465627567206D6F646520F5
:102D1600656E61626C6564007372635C6E616E6F92
:102D26005F7061636B6167652E637070004C49422A
:102D3600524152592056455253494F4E3A20004A65
:102D4600414D4553204B594C4520532E2042414C72
:102D56004F4C4F4E4700646F6E6520736572696114
:102D66006C2072656164696E6700646F696E6720C6
:102D76006E6F7468696E670072756E6E696E672035
:102D8600636F6E760073746F7070656420636F6E28
:102D9600760072756E6E696E6720736572766F2047
:102DA600616E6420737465707065722031383020EE
:102DB60064656772656573007265736574696E67CD
:102DC600206261636B0063617070696E6700646F97
:102DD6006E6520636170006F70656E20686F70703D
:102DE600657200636C6F736520686F707065720042
:00000001FF
